:020000040C00EE
:100000000008001001020008B1020008B102000857
:10001000B1020008B1020008B102000800000000AF
:10002000000000000000000000000000B102000815
:10003000B102000800000000B1020008F50D000840
:10004000B1020008B1020008B1020008B1020008C4
:10005000B1020008B1020008B1020008B1020008B4
:10006000B1020008000000000000000000000000D5
:10007000B102000800000000B1020008B10200084F
:10008000B1020008B1020008B1020008B102000884
:10009000B1020008B1020008B1020008B102000874
:1000A000B1020008B1020008B1020008B102000864
:1000B000B1020008B1020008B1020008B102000854
:1000C000B1020008B1020008B1020008B102000844
:1000D000B1020008B1020008B1020008B102000834
:1000E000B1020008B1020008B1020008B102000824
:1000F000B1020008B1020008B1020008B102000814
:10010000B1020008B1020008B1020008B102000803
:10011000B1020008B1020008B1020008B1020008F3
:10012000B1020008B1020008B1020008B1020008E3
:10013000B1020008B1020008B1020008B1020008D3
:10014000B1020008B1020008B1020008B1020008C3
:10015000B1020008B1020008B1020008B1020008B3
:10016000000000000000000000000000000000008F
:10017000B1020008B1020008B1020008B102000893
:10018000B1020008B1020008B1020008B102000883
:10019000B1020008B1020008B1020008B102000873
:1001A000B1020008B1020008B1020008B102000863
:1001B000B1020008B1020008B1020008B102000853
:1001C000B1020008B1020008B1020008B102000843
:1001D000B1020008B1020008B102000800000000EE
:1001E000B1020008B1020008B10200083D0F00088A
:1001F000B102000800000000B10200080000000089
:10020000DFF88CD023488047234C244DAC4209DAD8
:1002100021686268A368043BA2BFC858D050FAE7BF
:100220000C34F3E71E4B1F4CA34208DA19685A68D6
:100230000020043AA4BF8850FBE70833F4E71A48CB
:1002400080471A4880470000B04A000C0000002098
:1002500060040000104F000C00000030000000009F
:10026000B04A000C0008001000000000B04A000C6A
:10027000000800100000000060040020F8060000E4
:1002800000000030000E0000000800100000000018
:1002900000080010C5450008480200087802000860
:1002A00078020008900200082D460008050E00089C
:1002B000FEE70000034A1368184413688342FCD920
:1002C000704700BF600400209B4A9C4B4FF0021116
:1002D0005160196864311A689142FCD2964A4FF015
:1002E00002115160196864311A689142FCD2924A35
:1002F0004FF002115160196864311A689142FCD2C2
:100300008D4A4FF002115160196801F52F711A687A
:100310009142FCD2884A4FF002115160196801F5F0
:1003200096711A689142FCD2834A4FF002115160D3
:10033000196864311A689142FCD27F4A4FF0021169
:100340005160196864311A689142FCD27A4A4FF0C0
:1003500002115160196864311A689142FCD2764AE0
:100360004FF002115160196801F596711A689142B7
:10037000FCD2714A4FF002115160196864311A6859
:100380009142FCD26C4A4FF00211516019686431FD
:100390001A689142FCD2684A4FF002115160196804
:1003A00001F596711A689142FCD2634A4FF002112E
:1003B0005160196864311A689142FCD25E4A4FF06C
:1003C00002115160196864311A689142FCD25A4A8C
:1003D0004FF002115160196801F596711A68914247
:1003E000FCD2554A4FF002115160196801F596711F
:1003F0001A689142FCD2504A4FF0021151601968BC
:1004000001F596711A689142FCD24B4A4FF00211E5
:100410005160196864311A689142FCD2464A4FF023
:1004200002115160196864311A689142FCD2424A43
:100430004FF002115160196801F52F711A6891424D
:10044000FCD23D4A4FF002115160196801F59671D6
:100450001A689142FCD2384A4FF002115160196873
:1004600064311A689142FCD2334A4FF00211516054
:10047000196801F596711A689142FCD22E4A4FF024
:1004800002115160196801F596711A689142FCD207
:10049000294A4FF002115160196801F596711A68E6
:1004A0009142FCD2244A4FF0021151601968643124
:1004B0001A689142FCD2204A4FF00211516019682B
:1004C00001F596711A689142FCD21B4A4FF0021155
:1004D0005160196864311A689142FCD2164A4FF093
:1004E00002115160196801F596711A689142FCD2A7
:1004F000114A4FF002115160196864311A68914233
:10050000FCD20D4A4FF002115160196801F5967145
:100510001A689142FCD2084A4FF0021151601968E2
:1005200001F596711A689142FCD2034A4FF002110C
:1005300051601968643103E00081024860040020C2
:100540001A689142FCD23D4A4FF00211516019687D
:1005500064311A689142FCD2384A4FF0021151605E
:10056000196801F596711A689142FCD2334A4FF02E
:1005700002115160196864311A689142FCD22F4A05
:100580004FF002115160196864311A689142FCD22F
:100590002A4A4FF002115160196801F596711A68E4
:1005A0009142FCD2254A4FF0021151601968643122
:1005B0001A689142FCD2214A4FF002115160196829
:1005C00064311A689142FCD21C4A4FF0021151600A
:1005D000196864311A689142FCD2184A4FF002112E
:1005E0005160196864311A689142FCD2134A4FF085
:1005F00002115160196864311A689142FCD20F4AA5
:100600004FF002115160196801F596711A68914214
:10061000FCD20A4A4FF002115160196864311A681D
:100620009142FCD2054A4FF002115160196801F560
:100630009C5108311A689142FCD2704700810248EF
:1006400009286BD8DFE810F06B00CD0052028F0153
:1006500010033201B202EE0172030A00914A924B7A
:100660004FF002115160196801F596711A689142B4
:10067000FCD28C4A4FF002115160196864311A683B
:100680009142FCD2874A4FF002115160196801F57E
:1006900096711A689142FCD2824A4FF00211516061
:1006A000196864311A689142FCD27E4A4FF00211F7
:1006B0005160196801F596711A689142FCD2794A25
:1006C0004FF002115160196864311A689142FCD2EE
:1006D000744A4FF002115160196801F596711A6859
:1006E0009142FCD26F4A4FF0021151601968643197
:1006F0001A689142FCD26B4A4FF00211516019689E
:1007000064311A689142FCD2664A4FF0021151607E
:10071000196801F596711A689142FCD27047614AD6
:10072000614B4FF002115160196801F596711A681A
:100730009142FCD25B4A4FF002115160196864315A
:100740001A689142FCD2574A4FF002115160196861
:1007500001F596711A689142FCD2524A4FF002118B
:100760005160196864311A689142FCD24D4A4FF0C9
:1007700002115160196801F596711A689142FCD214
:10078000484A4FF002115160196864311A68914269
:10079000FCD2444A4FF002115160196801F596717C
:1007A0001A689142FCD23F4A4FF002115160196819
:1007B00064311A689142FCD23A4A4FF002115160FA
:1007C000196801F596711A689142FCD2354A4FF0CA
:1007D00002115160196801F596711A689142FCD2B4
:1007E0007047304A304B4FF0021151601968643144
:1007F0001A689142FCD22B4A4FF0021151601968DD
:1008000064311A689142FCD2264A4FF002115160BD
:10081000196801F596711A689142FCD2214A4FF08D
:1008200002115160196864311A689142FCD21D4A64
:100830004FF002115160196801F596711A689142E2
:10084000FCD2184A4FF002115160196864311A68DD
:100850009142FCD2134A4FF002115160196801F520
:1008600096711A689142FCD20E4A4FF00211516003
:10087000196864311A689142FCD20A4A4FF0021199
:100880005160196801F596711A689142FCD2054AC7
:100890004FF002115160196801F596711A68914282
:1008A000FCD2704700810248600400208D4A8E4BC4
:1008B0004FF002115160196864311A689142FCD2FC
:1008C000884A4FF002115160196864311A689142E8
:1008D000FCD2844A4FF002115160196864311A68E1
:1008E0009142FCD27F4A4FF0021151601968643185
:1008F0001A689142FCD27B4A4FF00211516019688C
:1009000064311A689142FCD2764A4FF0021151606C
:10091000196864311A689142FCD2724A4FF0021190
:100920005160196864311A689142FCD26D4A4FF0E7
:1009300002115160196864311A689142FCD2694A07
:100940004FF002115160196864311A689142FCD26B
:10095000644A4FF002115160196801F596711A68E6
:100960009142FCD270475F4A5F4B4FF002115160D9
:10097000196864311A689142FCD25A4A4FF0021148
:100980005160196864311A689142FCD2554A4FF09F
:1009900002115160196864311A689142FCD2514ABF
:1009A0004FF002115160196864311A689142FCD20B
:1009B0004C4A4FF002115160196864311A68914233
:1009C000FCD2484A4FF002115160196864311A682C
:1009D0009142FCD2434A4FF002115160196801F56F
:1009E00096711A689142FCD23E4A4FF00211516052
:1009F000196864311A689142FCD23A4A4FF00211E8
:100A00005160196801F596711A689142FCD2354A15
:100A10004FF002115160196801F596711A68914200
:100A2000FCD270472F4A304B4FF0021151601968C9
:100A300001F596711A689142FCD22A4A4FF00211D0
:100A40005160196864311A689142FCD2254A4FF00E
:100A500002115160196801F596711A689142FCD231
:100A6000204A4FF002115160196864311A689142AE
:100A7000FCD21C4A4FF002115160196864311A68A7
:100A80009142FCD2174A4FF002115160196864314B
:100A90001A689142FCD2134A4FF002115160196852
:100AA00064311A689142FCD20E4A4FF00211516033
:100AB000196864311A689142FCD20A4A4FF0021157
:100AC0005160196864311A689142FCD2054A4FF0AE
:100AD00002115160196801F596711A689142FCD2B1
:100AE000704700BF00810248600400208D4A8E4B91
:100AF0004FF002115160196864311A689142FCD2BA
:100B0000884A4FF002115160196864311A689142A5
:100B1000FCD2844A4FF002115160196864311A689E
:100B20009142FCD27F4A4FF0021151601968643142
:100B30001A689142FCD27B4A4FF002115160196849
:100B400001F596711A689142FCD2764A4FF0021173
:100B50005160196864311A689142FCD2714A4FF0B1
:100B600002115160196801F596711A689142FCD220
:100B70006C4A4FF002115160196864311A68914251
:100B8000FCD2684A4FF002115160196801F5967164
:100B90001A689142FCD2634A4FF002115160196801
:100BA00001F596711A689142FCD270475D4A5E4B1E
:100BB0004FF002115160196801F596711A6891425F
:100BC000FCD2584A4FF002115160196864311A681A
:100BD0009142FCD2534A4FF00211516019686431BE
:100BE0001A689142FCD24F4A4FF0021151601968C5
:100BF00064311A689142FCD24A4A4FF002115160A6
:100C0000196864311A689142FCD2464A4FF00211C9
:100C10005160196864311A689142FCD2414A4FF020
:100C200002115160196864311A689142FCD23D4A40
:100C30004FF002115160196864311A689142FCD278
:100C4000384A4FF002115160196864311A689142B4
:100C5000FCD2344A4FF002115160196801F59671C7
:100C60001A689142FCD270472E4A2F4B4FF0021166
:100C70005160196864311A689142FCD2294A4FF0D8
:100C800002115160196864311A689142FCD2254AF8
:100C90004FF002115160196864311A689142FCD218
:100CA000204A4FF002115160196864311A6891426C
:100CB000FCD21C4A4FF002115160196864311A6865
:100CC0009142FCD2174A4FF0021151601968643109
:100CD0001A689142FCD2134A4FF002115160196810
:100CE00064311A689142FCD20E4A4FF002115160F1
:100CF000196864311A689142FCD20A4A4FF0021115
:100D00005160196801F596711A689142FCD2054A42
:100D10004FF002115160196801F596711A689142FD
:100D2000FCD2704700810248600400202F4A304BFB
:100D30004FF002115160196801F596711A689142DD
:100D4000FCD22A4A4FF002115160196864311A68C6
:100D50009142FCD2254A4FF002115160196801F509
:100D600096711A689142FCD2204A4FF002115160EC
:100D7000196864311A689142FCD21C4A4FF0021182
:100D80005160196801F596711A689142FCD2174AB0
:100D90004FF002115160196864311A689142FCD217
:100DA000124A4FF002115160196864311A68914279
:100DB000FCD20E4A4FF002115160196864311A6872
:100DC0009142FCD2094A4FF0021151601968643116
:100DD0001A689142FCD2054A4FF00211516019681D
:100DE00001F596711A689142FCD270470081024861
:100DF00060040020024A136801331360704700BF8B
:100E0000600400202DE9F84F434A4448012103F0D3
:100E100029FA414A4148002103F024FA404A3F4858
:100E20000E2103F01FFA3E4A3C480F2103F01AFA44
:100E30003C4B3D4A1B68A2FB03239B09013BB3F1DA
:100E4000807F0AD24FF0E02238485361FC24002111
:100E5000072380F8234091611361DFF8D8A0DFF801
:100E6000BC80DFF8D490324FD8F8243059040AD42B
:100E70009AF80430002B42D001238AF80430D8F8C5
:100E800024305904F4D5D8F8243000228AF80420FC
:100E90001A0410D49AF814B0BBF1000F04D1DAF898
:100EA000100060B9FFF7CCFB0122D8F824308AF893
:100EB00014201B04F9D500238AF81430D4E7DAE9AA
:100EC00002350926ED1A4C460CE0BBF1010F12D099
:100ED000B5FBF4F0A7FB0423013E04FB10554FEAD9
:100EE000D304E1D0AC42F0D8B5FBF4F0FFF7A8FB97
:100EF0004FF0010BEEE70020FFF7A2FBE8E7DAE98D
:100F00000313DAF800200133CAE90212CAF81030DC
:100F1000FFF7DAF9B0E700BF5C490008008102483A
:100F200068490008C0FF0020D34D621000ED00E0CA
:100F3000CDCCCCCC6004002000E1F505014801F0E7
:100F4000BDB800BF0000002010B5154800F088FBB8
:100F5000144BDA68C2F30222C2F10701062928BF46
:100F6000062102B1013A4FF0FF338B40DB4393403F
:100F70009B000D4A0D48DBB282F86B334FF40061E1
:100F8000074BC2F88C11D1600268082083F82E004C
:100F90004FF41651D2689962BDE81040104700BF67
:100FA0000000002000ED00E000E100E03805002036
:100FB000704700BF704700BF10B5074C94F83E3132
:100FC000DB0700D410BDFFF7BFFF94F83E316FF38D
:100FD000000384F83E3110BD3805002010B50E4CDA
:100FE00040222146812000F07BFB4022A118822074
:100FF00000F076FB402204F18001032000F070FB3A
:10100000064801F095FB064A92F83E3143F0010391
:1010100082F83E3110BD00BF78040020100000208F
:1010200038050020014801F01FBD00BF100000205E
:10103000704700BF704700BF704700BF010A022918
:1010400018D0032909D0012903D0002003461360DA
:1010500070470A4B136012207047C0B20228F4D8C0
:10106000074B03EB800103EB40004B6DB0F86000D1
:1010700013607047024B13603E207047B44900086C
:101080007449000810B5084C236801215B6A802070
:1010900098472368012284F83B219B6ABDE81040F1
:1010A00018210020184700BF3805002070B59A4D60
:1010B0009A4C6E8882B00023ADF80230FFF7B2FF81
:1010C00094F83E319B0729D56B78F6B20C2B12D8D9
:1010D000DFE803F02F991174118F07115E65265414
:1010E0001100A988688801AAC9B2FFF7A7FF0646C0
:1010F000002840F09780236801215B6A8020984790
:101100002368012284F83B219B6A1821002098471C
:1011100094F83E316FF3410384F83E3102B070BD64
:101120007F4B1A78042A00F0A5801B78032BEFD19F
:10113000E1E7287810F0030000F08B80012800F030
:10114000C8800228D7D1764AAB881278042A01D009
:10115000002BD0D103F00F032C2202FB03431B7A98
:10116000D807C8D52268C3F38003156BADF80230E9
:1011700002220DEB02010020A847C9E7684B1A784C
:10118000042AD2D1AB886A88234483F83821BFE788
:10119000236864491B6B012200209847B8E784F854
:1011A0003961FFF71BFF002E4CD094F83E3113F04D
:1011B0000105A0D05A4B04221A70A9E7022E9AD03A
:1011C000574B1A78042A79D01B78032B93D1002E21
:1011D00091D12B7803F00303022B8CD1AB88DBB2C7
:1011E000002B88D1237A43F004032372FFF74AFFD0
:1011F0008EE74B4B56B303221A70236800219B697C
:101200003046984784E72B7803F00303022B3BD04A
:10121000002B7FF470AF94F83E2163F3820284F8D0
:101220003E2175E7EA88236801991B6B904228BF2D
:101230001646324600209847019B361A1844C4E9E6
:101240000A6065E7364B03221A7061E702221A70C2
:10125000D3E794F83E31C3F38002C3F3C00343EAFB
:1012600042032268ADF80230136B02220DEB02013B
:1012700098474DE7A988236801F59C711B6B0122F3
:1012800021440020984743E7254BA8881B78042B6E
:1012900002D000287FF42FAF2C2200F00F0302FBB6
:1012A00003431A7AD5077FF526AF21686FF38202D0
:1012B0004D6A1A720021C0B2A84729E7C6B1012EB3
:1012C0007FF426AF94F83E3143F0040384F83E31B6
:1012D0001EE7134B1B78042B7FF40DAF236802220B
:1012E00000201B6BADF802000DEB020198470FE7E1
:1012F000A8882C2200F00F0302FB03431A7AD107BF
:101300007FF5F9AE216842F004024D6A1A7201219C
:10131000C0B2A847FCE600BFC00A00203805002084
:10132000BC0A00207106002010B50C4C94F83B312B
:10133000022B0AD0032B07D1236820799B6A18213E
:101340009847012384F83B3110BD236800219B6A34
:1013500008469847052384F83B3110BD3805002026
:1013600010B50E4C94F83B31042B0BD0052B00D05C
:1013700010BD236820799B6A18219847012384F8BF
:101380003B3110BDFFF792FE236800221B6B114614
:1013900010469847032384F83B3110BD38050020E0
:1013A00070B51A4C1A4D23680822DB6A29460020C2
:1013B000984794F83E31082843F0020384F83E3100
:1013C0000FD1EE8876B195F90030002B17DB23683A
:1013D000042284F83B2131469B6ABDE8704000201E
:1013E000184770BD032384F83B31FFF75FFE236885
:1013F0003246314630461B6BBDE870401847022329
:1014000084F83B31BDE87040FFF750BE380500203E
:10141000C00A00202DE9F04182B009280BD8DFE88E
:1014200000F00D3640454D0A88940A0502B0BDE82B
:10143000F041FFF7FDBD02B0BDE8F081484B4948DF
:10144000012404704FF4A0720021184603F0ACF997
:10145000454903464FF480721960C9690191DDED79
:10146000017A9A6100F5A070C3E9080203F51071D2
:1014700041F203005961188183F83B41002117EEC6
:10148000903A4022084602B0BDE8F0411847344B7C
:10149000344A1B681B6A0020107002B0BDE8F0419E
:1014A000184702B0BDE8F041FFF782BD2D4B012285
:1014B0001A7002B0BDE8F041FFF77CBD284F294A01
:1014C00097F83E31012602216FF38203117087F8ED
:1014D0003B6187F83E3100254FF02C0801E00135D3
:1014E000013608FB057423896FF3041323812389D4
:1014F0006FF3C3032381237A6FF382032372002DDA
:10150000EDD0DBB2DB0707D53B6820791B6A984733
:10151000237A23F003032372072EE0D13B68387946
:101520000022A7F838219B6A182102B0BDE8F041DB
:1015300018470C4B0A49187881F83A0105221A70AD
:1015400002B0BDE8F041FFF777BD054A054B92F8C0
:101550003A211A7002B0BDE8F041FFF76BBD00BF41
:1015600038050020BC0A0020644A0008F8B53A4C4F
:1015700000F00F03012920F07F00B4F83C7184F8DB
:101580003D011E4684F83C3105D002292ED009B316
:10159000A4F83C71F8BD2C2505FB03452A8942F0CF
:1015A00020022A81EA684AB923682A61DB6A28791D
:1015B000D5E90512984794F83C31E8602C2202FBEB
:1015C000064632896FF3C3023281002BE0D1FFF768
:1015D000C7FEDDE72C2202FB0342108961F3C30042
:1015E0001081002BD4D1FFF7DBFED1E72C2202FBC8
:1015F0000345AA6A22BB2879020713D1EA698AB196
:101600001649C9888A420DD02989C1F38611B2FBD7
:10161000F1F501FB15222AB9236811461B6B984787
:1016200094F83C312C2202FB064600213289F161FC
:1016300061F304123281002BAAD1FFF775FEA7E7F0
:101640002368E96A1B6B28799847D5E90A23121A9F
:101650001844C5E90A20F8BD38050020C00A00205A
:1016600038B5164C05464FF4A0720021204603F011
:101670009BF8134B134A226000211970012184F852
:101680003B1104F5A071216204F510714FF48073D1
:10169000616141F2030152686362A36121812846BE
:1016A000904738B923680546DB69402201469847D0
:1016B000284638BD4FF0FF3038BD00BF3805002048
:1016C000BC0A0020644A000808B5044B1B68DB6BA9
:1016D0009847003818BF012008BD00BF380500201A
:1016E000074B10F0800F00F00F0C4FF02C0000FBA8
:1016F0000C3314BFC3E90812C3E90512704700BFD9
:10170000380500202DE9F041254D05EB8003D3F885
:10171000C4311B681B0401D4BDE8F0814FF0340EC6
:101720000EFB005EDEF82420002AF5D05FEA910867
:10173000D5F8E0610AD04FEA880C002301E0DEF81A
:1017400024203468D45004339C45F8D121F003039D
:10175000994219D0376817D9CE1A4FF0340E4FEA94
:10176000880CF6000EFB005E00224FF0FF0808FA1E
:1017700002F33B40D340DEF824400832B24204F882
:101780000C300CF1010CF2D1342303FB0050C26A7F
:10179000436A0A441944C2624162BDE8F08100BF55
:1017A00078080020826A036B816810B4C1F31201CB
:1017B0009C1A8C4288BF5218017898BF1A460C07B1
:1017C00082621CD103F07F0343F0C04343F4002343
:1017D000184AD2F80842647B01F00F0102EB810243
:1017E0008CB1D2F8C421136113685DF8044BC3F3C4
:1017F000076161F07B0161F31F63136070473AB9C1
:101800004FF40023E4E7D2F8C421416A5161EAE7CA
:101810004468C36AC4F3C62CD21A074B0CF1FF34D8
:101820001444C2F31202B4FBFCF403EAC4431343AE
:10183000CEE700BF780800200000F81FF0B590F850
:1018400000E0274D866A82680EF00F0C0CF16A03E7
:10185000C2F3120255F82310036B0C689F1B9742CA
:1018600028BFB3188362D3B11EF00F0F22D0466891
:10187000C26AC6F3C6279B1A7E1E1A4AB6B216FA69
:1018800083F6C3F31203B6FBF7F602EAC64213432C
:10189000D5F80822527BC2B9426A4A6101E04FF48E
:1018A0000023C4F3076262F07B0262F31F640B61E2
:1018B0000C60F0BDC26A9B1AD5F80822527BC3F3B4
:1018C000120343F40023002AE6D0012AE9D1D5F817
:1018D000A401456B02FA0CF22A434263E1E700BF20
:1018E000780800200000F81F40F2DF10704700BFAA
:1018F000044BD3F8A42153686FF3410300205360D5
:10190000704700BF78080020044BD3F8A421536827
:1019100043F0020300205360704700BF78080020A6
:1019200038B5124D00F00F02342303FB0253586800
:10193000C0F30014C00602D41879400701D4012076
:1019400038BD58691C61814228BF014602EB420044
:10195000196302EB8000D968596205EB8000C3E986
:101960000A44FFF71FFF204638BD00BF780800205B
:10197000044BD3F8A4311A6811B960F30A121A6043
:10198000002070477808002000F00F0C34221C4B18
:1019900002FB0CF29A5C02F00F02A9B1000655BFDF
:1019A00003EB82026A32D2F8C41153F822100A689B
:1019B00042F400120A60342202FB0C3300201A7930
:1019C00042F020021A717047010655BF03EB8202F4
:1019D0006A32D2F8C40153F822000268C2F30F4100
:1019E00021F4815141F4805161F31F42026034229D
:1019F00002FB0C3300201A796FF345121A717047FD
:101A00007808002000F00F0034220D4B00FB02F29A
:101A100099189A56002A4A68B4BF6FF3C3026FF34D
:101A200004124A60342202FB003300201A79186144
:101A30006FF34512C3E90A001A7198611863704781
:101A400078080020F0B5394B00F00F00342100FB7E
:101A500001F15A18D3F8A44192F804C0E6691CF0C9
:101A6000040F48D05F5C2CF0240C82F804C007F00F
:101A70000F0C57686FF30417576057686FF3C3076D
:101A800057605F560121002F354601FA0CF134DB17
:101A9000127992076FEA010141D10CF16A024FF00D
:101AA000904E53F822708AB2C7F800E002EA0607A7
:101AB00067F30F0503EB8C0C02EA1642DCF8C461F5
:101AC00062F31F454FF09047D3F808223760527BEE
:101AD000012A26D0342202FB0030E5618188B3F868
:101AE000FC21C1F383100121814022EA0102A3F805
:101AF000FC210020F0BD0120F0BD0CF16A074FF081
:101B0000904E53F82770C7F800E01779C9438AB29E
:101B100002EA060EBF076EF30F05CBD0DAE78AB2F2
:101B2000C8E7626B11406163D4E700BF780800200A
:101B3000034BD3F8A4319868C0F30D20704700BF61
:101B400078080020054B93F8FE0100F00500A0F195
:101B50000500B0FA80F04009704700BF7808002007
:101B6000074810B5D0F8A441636843F002034FF46E
:101B700002720021636002F017FE002010BD00BF5A
:101B8000780800202DE9F84F9B4CD4F8A431814609
:101B900000F00F00DF6900EB400300EB83004FF023
:101BA000340A15460E465246002104EB800009F027
:101BB0000F0802F0F9FD0AFB08FC04EB0C0104F825
:101BC0000C90486805F07F03DB0220F47E3043F080
:101BD000040320F0040003434B603A46B9F1000FC0
:101BE0007DD08B684FF6C07E6EF312038B6014F8C5
:101BF0000CC0824B0CF00F0C4FFA89F004EB8C0EEA
:101C000003F5E06903EB0C23CB6109EB0C23CB60FC
:101C1000DEF80C320B620028DEF828324B617ADAEB
:101C20000CF16A0354F8239006F00303D9F800E09E
:101C30009B0443F400432EF4482E43EA0E0E002E7C
:101C400074D065F30A0ECEF30F4323F4815343F4AB
:101C50008053B4F8FCA163F31F4E012100231AEA5C
:101C6000010F4FEA410B00F09D800133072B1FFA53
:101C70008BF1F4D111EA0A0F00F096800023342191
:101C800001FB08480121B8F804A001FA0CF189B25F
:101C900063F3995E63F3891A002841EA0703A8F801
:101CA00004A063F30F02C9F800E080F28280002EE6
:101CB00067D104EB8C0CDCF8C401036823F44823DF
:101CC00043F40043202D00F08B8060D8082D00F0F5
:101CD0008380102D48D1022565F30A0344E08B6808
:101CE0004FF0400E6EF312038B6014F80CC0434BA0
:101CF0000CF00F0C04EB8C0E484603F5E06903EB87
:101D00000C23CB6109EB0C23CB60DEF80C320B62A9
:101D1000DEF828324B61A6B90CF16A0354F823901F
:101D2000D9F800E02EF4482E4EF4004E202D5FD05E
:101D300032D8082D58D0102D85D1022363F30A0E16
:101D400081E704EB8C0306F00306D3F8C4010368B3
:101D5000B604012146F4004601FA0CF123F44823AD
:101D600089B2334365F30A0341EA174161F31F4225
:101D7000C3F30F4121F4815141F4805161F31F43BA
:101D80000360D4F8A4310020DA61BDE8F88F402D5B
:101D9000EAD16FF30A03E7E7402D7FF454AF6FF306
:101DA0000A0E50E703F00F034AEA0101A4F8FC1100
:101DB00065E704EB8C0CDCF8C40106F0030C036847
:101DC0004FEA8C4C4CF4004C23F448234CEA0303B8
:101DD000002E3FF477AFC5E7032565F30A03C3E799
:101DE000012565F30A03BFE7032363F30A0E2AE71D
:101DF000012363F30A0E26E7780800200000003074
:101E000030B5524D83B00446514801F0ADF901F0B0
:101E1000FFFBC5F8084205F5097305F5027105F5E4
:101E20001070402243F8042F834241F8042FF9D167
:101E30004FF402720021454802F0B6FC2368616845
:101E4000444AC5F80012A168C5F8041203F5006100
:101E5000C5E9683102F11C0003F5106142F8041B6A
:101E6000824201F12001F9D13B4A03F5306102F1D0
:101E70001C0042F8041B824201F12001F9D1374ACB
:101E800003F5805102F11C0042F8041B824201F567
:101E90008051F9D1617B9868B1FA81F252095201FF
:101EA00000F05E0462F07E02224362F30700986055
:101EB000DA6842F0804242F48072DA60D3F8002897
:101EC00022F4000222F0030242F00302C3F80028C9
:101ED000D3F80428002442F00202C3F80428019435
:101EE000019A42F020020192019A102060F38A12B6
:101EF0000192019A1A611A690192019A9506C2F338
:101F00004010F8D40090009A42F010020092009A1B
:101F10001A611A690092009AD406C2F30010F8D42C
:101F2000A1F10102B2FA82F25209120142F04042DA
:101F300042F4432242F440624FF0FF3142F00E027D
:101F4000986159619A6103B030BD00BF78080020E4
:101F500080000020200A00203C0A0020580A0020AF
:101F6000F8B50E4E342404FB0064074623699A42F8
:101F700028BF1A460846A369E1681944154602F0CD
:101F800079FB23695B1B23610BB1A3692B443420CC
:101F900000FB07662846B361F8BD00BF7808002043
:101FA000F8B5164F00F00F06342404FB06742379AD
:101FB000580704D563681B0703D50020F8BD01202E
:101FC000F8BD256AE069954228BF15462A4602F009
:101FD00051FBE36963626368256306EB46000022F8
:101FE00043F0080306EB800007EB8000C4E90A22F7
:101FF0006360FFF723FC206BF8BD00BF780800206A
:1020000070B51B4C057B94F8FE31002003F00106EF
:102010005DB30246844603464FF0340E09E05B6828
:10202000013213F0100FD3B218BF4FF0010C9D42D4
:102030000AD90EFB034359680907F0D50132D3B220
:102040009D424FF0010CF4D80CF0010C94F8FE31D5
:10205000C3F3800343F0080343EA460343EA8C0CCE
:102060000CF01F0C6CF3070070BD8446EEE700BF58
:102070007808002030B4047BDCB100230E4D1846F4
:102080004FF0340C08E05268013312F0100FDAB24E
:1020900018BF0120A2420AD20CFB03525168090763
:1020A000F1D50133DAB2A2424FF00100F4D330BCD3
:1020B0007047204630BC7047780800202DE9F04F6B
:1020C000944CD4F8A0319E695D698DB03540EBB277
:1020D00000932B07814607D5D4F800320920984792
:1020E000D4F8A03108225A6199F80D30012B46D05E
:1020F0006805C5F3072604D5D4F8A0314FF48062F3
:102100005A61310708D5D4F8003206209847D4F830
:10211000A0314FF400625A61002D4FEA156708DACA
:10212000D4F8003208209847D4F8A0314FF000428C
:102130005A617A060ED594F8FE3143F0040384F810
:10214000FE310020D4F800329847D4F8A0314FF087
:1021500080425A61F30600F16781B10600F14781C0
:10216000C5F307436A03029300F1D680029B1B0765
:1021700035D4009B5F071DD40DB0BDE8F08F009BE8
:10218000DF06B5D5D4F8A0316FF304169E61186A46
:10219000C0F3434202F00B02022A07D1C0F30A1136
:1021A00000F00F00FFF7AEFAD4F8A03146F01006A9
:1021B0009E619DE7D4F8A0315D686E070BD594F859
:1021C000FE31D4F800226FF3820384F8FE3101203F
:1021D0009047D4F8A0315D600DB0BDE8F08FD4F821
:1021E000A4219169D36952690292C3F30F4A1AEA92
:1021F000114A4FF00003019357D0019E53463546D4
:102200004FF03408DF074AD506F1700B04EB8B035F
:10221000029A5B6899F80D109F681740002966D1F3
:102220001A6901923807FAB245D5019BC3F341738D
:1022300008FB0640C3F10303DB000361037961F38C
:102240004513037108FB0643039258686FF30410AB
:1022500000215860D4F804320846984704EB8B03F9
:10226000039A5B680821D207996017D599F80D3059
:102270001BB308FB0640026B836A9A4230D1436865
:102280006FF30413436004EB8B0BC36A03610121FA
:10229000D4F8043228469847DBF804309F600135B3
:1022A000EDB25AFA05F32E46ACD1D4F8A0314FF472
:1022B00000225A615DE7D007F0D508FB0641019B7B
:1022C0008A6AC3F31203D31ACA6ACB629B1A4A6A98
:1022D00008FB064013444B62026B836A9A42CED0DD
:1022E00004EB8B0BFFF75EFADBF80430D6E7380718
:1022F000FAB20CD508FB0640012903796FF34513A8
:1023000003719FD10369C16A0B4403619AE7D10746
:10231000AFD4C3E778080020D4F8A4319A691B69C8
:1023200003931FFA82FBBBF1000F5BD000255B46D5
:1023300028464FF0340AC846DB074CD500F16A0343
:102340000AFB00F2D4F8A491019354F8233014F856
:1023500002C09968D9F834600CF00F0C224426FAB8
:102360000CF60492F601039AF6B216430E4098F862
:102370000D10C1B9F70719692CD531F0604307D1A9
:10238000049AD2E90A31591AD362536A0B44536250
:102390000AFB00418A6A0B6B9A4214D14B686FF3B7
:1023A000C3034B60E0E0012902D1320600F1E68070
:1023B000F2070FD50AFB004CDCF83020DCF828309F
:1023C0009A4200F0C1800AFB0040FFF737FA019BF8
:1023D00054F823309E600135EDB25BFA05F32846D0
:1023E000AAD1C146D4F8A03100225A61BEE6D4F881
:1023F000A81194F8FE310A6823F005036FF30A026E
:1024000043F005030A60022084F8FE31D4F800325C
:102410009847D4F8A021D368092161F38D23D360B4
:102420004FF4005353619BE6D4F8A42178485368D5
:1024300043F00103536000F11C0C50F8047B3B682F
:10244000C3F30F4121F4026141F4006161F31F43C2
:1024500084453B60F1D1D4F8A0316E486E49DFF875
:10246000C0B1DFF8C081DFF8C0E1DFF8C0C16B4F59
:102470004FF0400AC3F824A0C3F828B0C3F8048181
:10248000C3F808E1C3F80CC1C3F81071C3F8140114
:10249000C3F8181100210B910B9941F020010B9109
:1024A0000B99102060F38A110B910B99196119692E
:1024B0000B910B998F06C1F34010F8D40A900A993A
:1024C00041F020010A910A9960F38A110A910A9950
:1024D000196119690A910A99C1F340108906F8D463
:1024E0000990099941F01001099109991961196937
:1024F00009910999CF06C1F30010F8D44FF00113E8
:10250000D361536943F00F035361136943F00F0321
:102510001361136860F30A13136099F80D30012BEF
:1025200008BF506363686FF30413636063686FF3FD
:10253000C30363600420D4F800329847D4F8A03174
:102540004FF480525A6108E6DCF8043001296FF339
:10255000C303CCF8043007D101FA00F0D9F83410E5
:1025600021EA0001C9F83410D4F80432022145F000
:1025700080009847019B54F823302BE70CF16A0E3A
:10258000049A54F82EE0DEF81870D2E90A2EB2EB65
:102590000E0204922DD00332BFB20697970805971A
:1025A000069FB7EB920F3CBFBA00CDE90427059A0E
:1025B00052B30CF1780C0AFB004E54F82C700697BD
:1025C000DEF82420059F059002EB8707BC4606989D
:1025D000019F079352F8043B03606245CEF8242024
:1025E000F8D1DEF82C200197049F0598079B07EB94
:1025F000020E0AFB004C049FDCF82420CCF82CE0EF
:102600003A44CCF82420D3E6049A9644F1E700BF7C
:102610003C0A002090001000A00010008000100074
:10262000400010005000100060001000700010000A
:1026300008B5034800F098FDBDE8084000F0E8BF89
:102640008000002008B5034800F082FDBDE8084086
:1026500000F0E6BF800000200D2808D8DFE800F079
:102660003D0707073607140D0D1B2128072F0023F0
:102670001B4AD2F8A02153617047194AD2F8A02111
:102680004FF0004353617047154AD2F8A0214FF430
:10269000006353617047124AD2F8A02108235361A6
:1026A00070470F4AD2F8A0214FF4806353617047FE
:1026B0000B4AD2F8A0214FF4005353617047084AE7
:1026C000D2F8A0214FF4002353617047044AD2F896
:1026D000A0214FF48053536170474FF08043C7E708
:1026E00078080020024B6A3153F821309860704717
:1026F00078080020034B03EB8101D1F8C4319860C6
:10270000704700BF78080020034BD3F8A421536919
:1027100018435061704700BF78080020034BD3F87E
:10272000A421136918431061704700BF7808002086
:1027300000230222032110B58174044643618361A2
:10274000C361827102730121104400F07DFB08B95E
:10275000002010BD012104F1080000F075FB0028E5
:10276000F6D004F10E000121BDE8104000F06CBB72
:102770000E4B1B78042B17D18369ABB110B583784E
:102780000B4A0C46204603F00F0123F07F0382F82A
:102790003C1182F83D3102F073F8002281B22046EC
:1027A000BDE8104001F0F6BA02207047BC0A0020D4
:1027B000380500200E4B93F800C0BCF1040F14D173
:1027C0000B46816989B110B581780A4C01F00F0E72
:1027D00021F07F0C84F83CE1114684F83DC1184695
:1027E000BDE81040002201F0D5BA0220704700BFBA
:1027F000BC0A002038050020104B1B78042B1AD18E
:102800008369C3B110B583780D4A0C4603F00F01FC
:1028100023F07F0382F83C1182F83D3100F0A0FAEA
:1028200020B900F053FA00F0D7F918B9204600F0AB
:10283000AFFA002010BD0220704700BFBC0A002084
:1028400038050020184B1B78042B22D1836903B371
:102850008278164902F00F002C2303FB001322F0AC
:102860007F0281F83C0181F83D2193F90420002A80
:10287000B4BF9B8B9B890BB90020704710B582B009
:1028800000F06EFA044600F021FA24B1002002B0F4
:1028900010BD0220704700F09FF90028F7D1019089
:1028A00000F014FA0198F2E7BC0A00203805002075
:1028B0000D4B1A78042A16D18269A2B182780B4B8B
:1028C00002F00F0122F07F0283F83D212C2283F8D1
:1028D0003C1102FB01339A68D20604D41B7A9B0791
:1028E00001D5FFF7AFBF7047BC0A002038050020B4
:1028F000144B1B78042B19D18369BBB1027A12499E
:1029000002F00F002C2322F07F0203FB001381F85A
:102910003C0181F83D219A68920607D593F904207D
:10292000002AB4BF988B988910B170470020704777
:1029300000B583B0019000F09FF9019803B05DF8F5
:1029400004FB00BFBC0A002038050020284B1B7880
:10295000042B49D18369002B46D010B5027A254C4F
:1029600002F00F002C2322F07F0203FB004384F8C7
:102970003C0184F83D219A68920682B0014630D528
:1029800093F90420002A22DB9B8943B94FF0FF30E2
:102990002C2303FB0144A3899BB102B010BD00F0BE
:1029A0000DFA94F83C112C2303FB014300B293F978
:1029B0000430002BECDA2C2303FB0144A38B002B07
:1029C000EBD1019000F058F9019802B010BD9B8B3B
:1029D000002BE4D12C2303FB01444FF0FF30A38BE9
:1029E000EDE74FF0FF30D8E74FF0FF30704700BF02
:1029F000BC0A002038050020154B1B78042B06D19B
:102A000030B5836983B0044613B903B030BD704755
:102A1000837B104D104A03F00F0185F83C1192E8BA
:102A20000300EC468CE8030023F07F03604600229D
:102A3000082185F83D3101F0ADF90022022104F1B1
:102A4000160001F0A7F900F041F903B030BD00BF56
:102A5000BC0A002038050020A44A0008704700BFC7
:102A6000704700BF704700BF434B93F83E21920769
:102A70000FD510B5414A017804469088884200D0AD
:102A800010BD517820390329FAD8DFE801F04C282D
:102A90001303704711782129F2D193F83E01518830
:102AA00002466FF34102C9B2204683F83E21FFF788
:102AB000D9FF10BD11782129E2D193F83E1192F887
:102AC00002C0D2784CEA022C0A466FF3410283F826
:102AD0003E212046A4F814C0FFF7C2FF10BD1278B3
:102AE000A12ACDD193F83E1193F83C216FF3410117
:102AF0002C2083F83E1100FB02339A68D006FCD4E8
:102B00001A7A9107F9D5A06900F06EF9207F00F0DC
:102B10003FF9607F00F03CF9A07F00F039F9BDE893
:102B2000104000F0D3B81278212AA9D193F83E11B1
:102B300093F83C216FF341012C2083F83E1110499A
:102B400000FB023302E00A78002A99D09A689206C4
:102B5000F9D500F05FF9A06100F030F9207700F0BE
:102B60002DF9607700F02AF9A07700F085F820466B
:102B7000FFF774FF10BD00BF38050020C00A002019
:102B8000BC0A002038B5124B1B78ABB1114C94F83D
:102B90003E3194F83D5194F83C2100219B07A4F864
:102BA0003C1145EA020508D405F00F0325F07F0526
:102BB00084F83C3184F83D5138BDFEF777FA05F0D2
:102BC0000F0325F07F0584F83C3184F83D51F3E78D
:102BD000BC0A0020380500202DE9F041244C254E88
:102BE00023689B6B984794F83C312C2707FB0342E2
:102BF000642592F90410002980461FDB9268920632
:102C000032D4327802F0FF0112B3052923D007FB3A
:102C100003431B7A5B0721D423689B6B984780454D
:102C200003D06B1EDBB2E5B11D4694F83C3107FBC7
:102C30000342804692F904100029DFDA9168C1F35B
:102C40000010C906DDD4127A9107DAD5BDE8F0810B
:102C50000220BDE8F0810320BDE8F0810120BDE83D
:102C6000F0810420BDE8F0810020BDE8F08100BFC4
:102C700038050020BC0A002070B5134D95F83C4182
:102C80002C2303FB0454237A9A071BD52B68A269D3
:102C9000DB6A616920799847A36800221B07C4E9B1
:102CA00003020FD470B92389A16943F0080323817B
:102CB000238960F3451323812B6820799B6ABDE843
:102CC0007040184770BD00BF38050020F8B5214D91
:102CD00095F83C412C2303FB0454A368D80626D462
:102CE000237A990723D523891B4ED4E9072143F082
:102CF000100323814FF400670023E162A262E361C5
:102D0000C6F88C70BFF34F8FBFF36F8F2B6820799D
:102D10001B6BD4E90A219847A36AE16A0144181A97
:102D2000E162A062F7600D4E3378012B00D0F8BD50
:102D300020790207FBD0A368C3F30017DB06FAD49F
:102D4000238943F0100323812B683A461B6B984775
:102D50003770F8BD3805002000E100E04C0B002082
:102D60000A4B93F83C212C2101FB023393F90420F8
:102D7000002A04DBD868003818BF01207047D869E2
:102D80005B6A98422CBF0020012070473805002064
:102D9000094991F83CC12C2202FB0C12D369526AFA
:102DA0009342FDD22C2202FB0C110A6AD054CB694B
:102DB0000133CB61704700BF38050020094B93F801
:102DC0003C212C2101FB0233DA6852B110B4D3E963
:102DD0000410013A4C1C405CC3E903245DF8044B29
:102DE0007047FEE738050020094991F83CC12C23C3
:102DF00003FB0C13DA695B6A033B9A42FDD22C2376
:102E000003FB0C110B6A9850CB690433CB617047FC
:102E10003805002010B40B4B93F83C112C2202FB18
:102E20000132D268032AFDD92C2000FB0133D3E9FB
:102E30000410043A0C1D4058C3E903245DF8044B08
:102E4000704700BF38050020002937D001392DE92F
:102E5000F843C9B2831D0625DFF86880184F044681
:102E600015FB01352C2616E0638811892078107136
:102E70009B0103F4FE5343F0030339400B431381DA
:102E8000030604F1060404D4D8F8003091699B6A63
:102E90009847AC420FD0D8F800302078628821796A
:102EA000DB6900F00F09984706FB09820028DBD098
:102EB0000020BDE8F8830120BDE8F88301207047B9
:102EC0003CE0FFFF38050020024AD36F1843D0676B
:102ED000704700BF00400050024AD36F23EA000051
:102EE000D067704700400050034AD2F8843018433E
:102EF000C2F88400704700BF00400050014B986F3B
:102F0000704700BF00400050014BC3F8800070477D
:102F100000400050024B186900F47060704700BF19
:102F200000400050014B1861704700BF0040005046
:102F3000024B800003445868704700BF284000508F
:102F4000024B800003445960704700BF2840005086
:102F5000800000F1A04000F580400123D0F8A020BF
:102F600003FA01F11143C0F8A0107047800000F18E
:102F7000A04000F580400122D0F8A03002FA01F113
:102F800023EA0103C0F8A030704700BFC902044B18
:102F900041EA001141F40801C3F88C10704700BFEA
:102FA00000400050034AD2F88C3023F00103C2F8ED
:102FB0008C30704700400050034AD2F88C3043F008
:102FC0000103C2F88C30704700400050034BD3F827
:102FD0008C00C04300F00100704700BF004000506B
:102FE000024BD3F89000C0F380307047004000508F
:102FF000084B084AD3F88C00D3F890301B04D2F861
:103000008C3043F0020354BF00F001000220C2F8EC
:103010008C30704700400050054BD3F88C20D2070D
:103020005ABFD3F89000C0F309006FF0004070471A
:1030300000400050024BD3F89000C0F3C0307047FE
:10304000004000500004074A00F4702040F00100E6
:10305000C2F8CC10C2F8C800D2F8C4309B04FBD42C
:10306000704700BF00400050064A000400F4702082
:10307000C2F8C800D2F8C4309B04FBD4D2F8CC000C
:10308000704700BF00400050024A936E23EA0000E0
:103090009066704700410050024A936E1843906654
:1030A000704700BF00410050014B586E704700BF91
:1030B00000410050014B1867704700BF00410050AD
:1030C000014BD866704700BF00410050024A136DA3
:1030D00018431065704700BF00410050014B186D48
:1030E000704700BF00410050024AD36B1843D063C1
:1030F000704700BF00410050024AD36B23EA000032
:10310000D063704700410050024A536C184350642A
:10311000704700BF00410050024A536C23EA000090
:103120005064704700410050034AD2F88830184379
:10313000C2F88800704700BF00400050034AD2F830
:10314000883023EA0000C2F8880070470040005031
:10315000030F044A03EB430320F0704042F82300BE
:10316000704700BF10440050030F044A03EB4303B1
:1031700020F0704042F82300704700BF1444005014
:10318000030F064A03EB430352F82330184030F094
:10319000704314BF01200020704700BF0C44005052
:1031A000124BDB69DA0710B51CD511480F4A1369B9
:1031B000DB0706D5936903F07F030133B0FBF3F01F
:1031C00010BD916994699369C3F30643C4F3062C57
:1031D000C1F3036201330CFB000002FB0333B0FBBD
:1031E000F3F010BD01F0BAF8E0E700BF004700506F
:1031F00000366E01034BDB69DB0701D502487047DF
:1032000001F0ACB80047005000366E0108B501F07F
:10321000A5F8084B1A6AD2070BD45A6A5B6AC3F343
:103220000363C2F30622013302FB00005B00B0FB24
:10323000F3F008BD00470050054B06491A690868BD
:103240001B6A02F00102904003F00103D84070476E
:1032500000460050C0FF002008B5084B9B69DB0307
:1032600009D5FFF79DFF054B9B6903F00703013369
:10327000B0FBF3F008BDFFF7C9FFF4E700460050CC
:1032800008B5FFF78DFF044BDB6903F03F03013303
:10329000B0FBF3F008BD00BF0046005008B50D4B71
:1032A0005B6A03F44033B3F5003F0FD063B1B3F56D
:1032B000803F14BF00204FF40040064B5B6ADBB236
:1032C0000133B0FBF3F008BD0348F6E7FFF768FFF2
:1032D000F3E700BF0046005000366E0110B5124CF7
:1032E000A36A03F00303032B0BD01BB1022B11D0F5
:1032F000002010BD0D4A2369106803F001039840B7
:1033000010BDFFF74DFFA36AC3F308430133B0FBC1
:10331000F3F010BDFFF77AFFA36AC3F3084301334C
:10332000B0FBF3F010BD00BF00460050C0FF00200E
:10333000034B044A5B69106803F00103D8407047EF
:1033400000460050C0FF0020034AD36823F48033B6
:103350001843D060704700BF00460050034A93698D
:1033600023F4803318439061704700BF004600503B
:10337000034A536A23F4403318435062704700BF36
:1033800000460050034A936A23F0030318439062F7
:10339000704700BF00460050074AD36928B923F49C
:1033A000807323F00103D361704743F4807343F0CB
:1033B0000103D361704700BF00470050054AD2F8AF
:1033C000C4301B07FBD4044AD36823F040031843DE
:1033D000D06070470040005000430050054AD2F8CA
:1033E000C4301B07FBD4044AD36823F0800318437E
:1033F000D06070470040005000430050034AD3683B
:10340000013823F0FF030343D360704700460050A8
:10341000034A136A013823F0010303431362704720
:1034200000460050034A1369013823F001030343A7
:103430001361704700460050034A5369013823F076
:10344000010303435361704700460050034A9369E8
:10345000013823F00703034393617047004600508F
:10346000034AD369013823F03F030343D361704714
:1034700000460050034A536A013823F0FF03034318
:103480005362704700460050054A936A23F0FF7369
:10349000013823F4803343EA00439362704700BF4E
:1034A00000460050014B5860704700BF0046005076
:1034B000014B9860704700BF00460050034B1B68EB
:1034C000184214BF01200020704700BF0046005082
:1034D000064B9FED077A5B69DBB207EE903AF8EE98
:1034E000E77A67EE877A17EE900A7047004200503D
:1034F000ED0DBE3B074B9FED087A5B69C3F30723D5
:1035000007EE903AF8EEE77A67EE877A17EE900AC0
:10351000704700BF00420050EC51B83C034A536A68
:1035200023F4803323F002035362704700470050B6
:10353000034A536A43F4803343F0020353627047F3
:10354000004700500F4B5A6A42F001025A625A6A11
:1035500001380139000642F0100240EA01205A62A7
:1035600058625A6A42F040025A625A6A22F01002C5
:103570005A625A6A42F480225A621A6A5207FCD589
:10358000704700BF00470050014B024A5A62704723
:1035900000470050030001001A4A5369012843F410
:1035A000801310B5536111D0174C00F0DBFE226878
:1035B0001649A1FB02126423920C03FB02F222B112
:1035C000002300BF01339A42FBD110BD53690E4C5A
:1035D00023F48013536100F0C5FE23680B4AA2FB5D
:1035E00003326421920C01FB02F222B1002300BFDE
:1035F00001339A42FBD1034A536943F400235361D8
:10360000D3E700BF00470050C0FF002083DE1B430C
:10361000024B4FF440325A60704700BF00420050E6
:10362000024B4FF440329A60704700BF0042005096
:10363000024B186AC0F38000704700BF004700507B
:10364000094A1368DB0704D4012353601368D807C1
:10365000FCD5064A1368990505D54FF400739360AD
:1036600013689B05FCD47047004200500044005092
:103670000349044B01204FF4007288605A60704780
:103680000042005000440050054B186810F0010043
:1036900005D0D3F8000280F40070C0F340207047DA
:1036A00000420050054AD2F8C4309B06FBD4044ABD
:1036B000536923F001035361704700BF004000507D
:1036C00000430050054AD2F8C4309B06FBD4044A9C
:1036D000536943F001035361704700BF004000503D
:1036E00000430050034AD2F8C4309B07FBD4024B7E
:1036F000586070470040005000430050034AD2F821
:10370000C4305B07FBD4024B986070470040005008
:1037100000430050044AD2F8C4301B07FBD4034BCB
:10372000DA681043D86070470040005000430050F2
:10373000054AD2F8C4301B07FBD4044AD36823EAF5
:103740000000D060704700BF0040005000430050B0
:10375000054AD2F8C4301B07FBD4044AD36843F0AF
:103760001003D360704700BF00400050004300507A
:1037700048B9054AD2F8C4301B07FBD4034AD368C2
:1037800043F01003D36070470040005000430050E6
:10379000074AD2F8C4301B07FBD4064AD36818B9CD
:1037A00043F48073D360704723F48073D360704711
:1037B000004000500043005010B40A4AD2F8C43010
:1037C0001B07FBD4084C8000E3684FF47022824052
:1037D00023EA020301FA00F01843E0605DF8044BAD
:1037E000704700BF004000500043005010B4094A29
:1037F000D2F8C4301B07FBD4074C4FF48053E26867
:10380000834022EA030201FA00F31343E3605DF808
:10381000044B70470040005000430050074AD2F864
:10382000C4301B07FBD4064AD36818B943F480633D
:10383000D360704723F48063D3607047004000502A
:1038400000430050054AD2F8C4301B07FBD4044A99
:10385000D36823F480631843D06070470040005061
:1038600000430050034B186880F00800C0F3C0000C
:10387000704700BF00430050104AD2F8C430180609
:10388000FBD40F490D4ACB6923F03003CB61D2F84A
:10389000C4301907FBD40A49084ACB6843F008032F
:1038A000CB60D2F8C4305B07FBD4054B034A082138
:1038B0009960D2F8C430002BFBD170470040005013
:1038C00000430050054AD2F8C4301B06FBD4044A1A
:1038D000D36943F03003D361704700BF004000500C
:1038E00000430050054AD2F8C4301B06FBD4044AFA
:1038F000D36943F03103D361704700BF00400050EB
:1039000000430050064AD2F8C4301B06FBD4054AD7
:10391000D36923F0310343F02003D361704700BF24
:103920000040005000430050024B986900F0010035
:10393000704700BF0043005038B50C4D6B6923F44D
:1039400080336B616C6800F009FD094BA3FB00300C
:10395000030D24F47022013B22F0300242EA0343BB
:103960006B606B6923F400336B6138BD0047005016
:103970006BCA5F6B044B186900F46070A0F560704F
:10398000B0FA80F04009704700470050024A53687F
:1039900043F030035360704700470050024A5368B9
:1039A00043F001035360704700470050024A5368D8
:1039B00023F001035360704700470050024B186822
:1039C00000F00100704700BF00470050034A5369F0
:1039D00023F4803323F00203536170470047005003
:1039E000034A536943F4803343F002035361704741
:1039F000004700502DE9F041069E624C90461F465C
:103A0000B8B9E06920F4807020F001000129E0617C
:103A10007CD05C4A9369013E23F07F031E4396618C
:103A2000536943F0010353611369DB07FCD5BDE81B
:103A3000F081E06940F4807040F001000129E0610C
:103A4000E7D14FF0C0654F49486940F00100486137
:103A5000486940F0100048618C694B4808F1FF321A
:103A6000204040EA0260494A7B1E40EA032307FBEC
:103A700005F5B5FBF8F5A2FB0502920E013A43EA03
:103A800002438B614B6943F040034B614B6923F068
:103A900010034B614B6943F480234B610B695A0758
:103AA000FCD54A69374B22F001024A611C6914F0C7
:103AB0000104FBD1364AA2FB0512B6EBD26F4FEAE6
:103AC000D26145D3334F344B6D08A3FB0535B6EBBC
:103AD000D56F4FEAD56321D32A4A9369013E23F477
:103AE000FE0343EA0646966100F03CFC3B682B4926
:103AF000A1FB031332229B0C02FB03F3002B96D095
:103B000000BF0134A342FBD1BDE8F08100F026FCE8
:103B1000224DA5FB0035AD0CAD0594E719498A6926
:103B2000013B22F4FE0242EA03438B6100F01AFCDF
:103B30003B681A4AA2FB0332920C322303FB02F2C7
:103B4000002AC9D0002300BF01339A42FBD1C3E74A
:103B50009A69104F22F4FE02013942EA014199614B
:103B600000F000FC3B680D4AA2FB0332920C3223AA
:103B700003FB02F2002AA6D0234600BF01339A427B
:103B8000FBD1A0E700470050FF8080F0ABAAAAAAB3
:103B900089888888C0FF0020B7600BB683DE1B438E
:103BA00070B5444AD368044623F48033D36082B0AE
:103BB000FFF746FDE379002B75D1607A3E4AD2F8D3
:103BC000C4301B07FBD43D493B4ACB6823F080033C
:103BD0000343CB60D2F8C430002BFBD1207AFFF72F
:103BE000DBFC344B227CD968A07921F0FF01013A3B
:103BF0000A43DA601969627C21F00101013A0A4343
:103C00001A61196AA27C21F00101013A0A431A6281
:103C10005969E27C21F00101013A0A435A6118BB5B
:103C2000274AE178536991B943F4803343F00203A2
:103C30005361E368B3F5803F04D11E4AD36843F46F
:103C40008033D36002B0BDE8704000F08BBB23F43A
:103C5000803323F002035361A078237862780090C8
:103C6000A088FFF7C7FEE4E7154D6B6923F48033A6
:103C70006B616E6800F072FB124BA3FB00231B0DFF
:103C800026F47022013B22F0300242EA03436B60CB
:103C90006B6923F400336B612B6903F46073B3F534
:103CA000607FF9D1BCE7FFF7E7FD044A1368190705
:103CB000FCD482E700460050004000500043005012
:103CC000004700506BCA5F6B024A536943F480336C
:103CD00053617047004700500D4A08B59369013899
:103CE00023F4FE0343EA0043936100F03BFB094BDE
:103CF00009491A68A1FB02123223920C03FB02F25B
:103D000022B1002300BF01339A42FBD108BD00BF9E
:103D100000470050C0FF002083DE1B43024B1869A0
:103D2000C0F38000704700BF0047005010F001034F
:103D300002D00FE0202B0BD0013320FA03F2D20780
:103D4000F8D5202B04D0044A002042F823107047F5
:103D5000012070470023F6E7CC0A00200B4B10B57A
:103D60009A6F002402E00134202C0ED022FA04F3D2
:103D7000DB07F8D5064B53F8243003B19847034AC4
:103D8000012303FA04F4C2F8804010BD0040005043
:103D9000CC0A00202DE9F84FDFF8A4A007469AF8D6
:103DA0003CB10D469046002A41D016888D1BADB21D
:103DB0002C2404FB0BA44FF00009F5B1A368DB062B
:103DC000FBD4FEF7CDFFB91930B3D4E90832E0696E
:103DD000A2EB0009A94528BFA9464A46184400F0AD
:103DE00001FA1FFA89F3E2691E44EB1A4A44A94614
:103DF0009DB2E261B6B2002DE0D12C2303FB0BAAE9
:103E00002846BAF80830C3F386134B4502BF0B4B64
:103E100001221A70BDE8F88FFEF758FFB8F1000FC5
:103E200007D1FEF7D9FE0028C7D0BDE8F88F1646A7
:103E3000BEE7A8F800600520BDE8F88F4C0B002015
:103E40003805002062B101384B1E1044114401F1C5
:103E5000FF3C1A18D11A13F8010F08706345F9D105
:103E6000704700BF2DE9F843274B804693F83C91FB
:103E70000D461746002A40D016888D1BADB22C2265
:103E800002FB0939B5B3D9F80830DB06FAD4FEF7DE
:103E900067FF40B9FEF71AFF8FBBFEF79DFE0028B3
:103EA000F0D0BDE8F883D9E90842D9F81C30D21A1D
:103EB000AA4228BF2A4691B203F1FF3C08EB060054
:103EC0007AB164440346144410441C4493F800E05F
:103ED000A4EB030C013398428CF800E0F6D1D9F83A
:103EE0001C306D1A1A440E44ADB2C9F81C20B6B28B
:103EF000002DC8D12846BDE8F8831646BFE73E80AE
:103F00000520BDE8F88300BF380500202DE9F843FF
:103F1000224C074694F83C310D469046002A36D094
:103F200016888D1BADB22C2202FB03440DB3A3688F
:103F30001B07FBD4FEF714FF0346B819E3B1D4E91D
:103F40000331AB4228BF2B4699461A466369194490
:103F500000F048F9D4E903231FFA89F16D1AA2EBA6
:103F600009024B440E44ADB2C4E90323B6B2002D9E
:103F7000DDD12846BDE8F883FEF77EFEB8F1000FDC
:103F800007D1FEF729FE0028D0D0BDE8F8831646F9
:103F9000C9E7A8F800600520BDE8F88338050020CF
:103FA0002DE9F843294B804693F83C910D4617467E
:103FB000002A44D016888D1BADB22C2202FB093991
:103FC000002D39D0D9F80830DB06F9D4FEF7C8FE49
:103FD00040B9FEF751FEA7BBFEF7FEFD0028EFD06B
:103FE000BDE8F883D9E90332D9F814409D42294647
:103FF00028BF194688B208EB060C224481B10CEBAD
:10400000010414441346013C0A4493F800E0A4EB75
:10401000030C01339A428CF800E0F6D1D9F80C3049
:10402000D9F810402D1A5A1A06446318ADB2C9E9DE
:104030000323B6B2002DC5D12846BDE8F883164645
:10404000BBE73E800520BDE8F88300BF38050020AF
:10405000F8B5104E07460C46D4B1B368C3F3001C44
:10406000DB06F9D4736A306AA342A4EB0302254647
:104070009CBF1D4694B239462A4688BF644600F06C
:10408000B1F8F3692B44F361FEF720FE002CE4D174
:104090002046F8BD38050020F8B5104E07460C46FE
:1040A000D4B1B368C3F3001CDB06F9D4736A306A79
:1040B000A342A4EB030225469CBF1D4694B2394699
:1040C0002A4688BF644600F08DF8F3692B44F361FB
:1040D000FEF7FCFD002CE4D12046F8BD3805002099
:1040E000F8B50D4D07460C46A4B1AB689B06FBD551
:1040F000EE686969A64228BF26463246384600F077
:1041000071F8EB68A41B9B1BA4B2EB60FEF7B4FD37
:10411000002CEAD12046F8BD38050020F8B50D4D39
:1041200007460C46A4B1AB689B06FBD5EE686969EF
:10413000A64228BF26463246384600F053F8EB68C0
:10414000A41B9B1BA4B2EB60FEF796FD002CEAD1EA
:104150002046F8BD380500202DE9F041204C0546E9
:1041600094F83C318846002932D00F88C51BADB287
:104170002C2202FB0344EDB1A368C3F30016DB0657
:10418000F9D4FEF7EDFD3146B8B104F11C0049C881
:10419000361AAE4228BF2E463246184400F004FBC1
:1041A000E269B3B2ED1A32441F44ADB2E261BFB26C
:1041B000002DE1D12846BDE8F081FEF787FDB8F17A
:1041C000000F07D1FEF708FD0028D4D0BDE8F0812C
:1041D0000F46CDE7A8F800700520BDE8F08100BFCC
:1041E00038050020130911D051F804CB40F804CB56
:1041F00051F804CB40F804CB51F804CB40F804CB81
:1042000051F804CB40F804CB013BEDD112F00F0381
:1042100005D011F801CB00F801CB013BF9D1704773
:1042200001F0FC03184401F003010369C9004FF0D9
:10423000F80C8A400CFA01F123EA010303610369D7
:104240001A430261704700BF436F49004FF0030CEF
:104250000CFA01FC23EA0C034367436F8A401A43BC
:104260004267704701F0FC03034401F0030C30B5D2
:104270004FEACC0C1C694FF0F80E0EFA0CFE24EA43
:104280000E041C61446F4D004FF0030E0EFA05FE44
:1042900024EA0E044467164CA04219D004F5807439
:1042A000A04215D054688C404460CC0800EB8400D8
:1042B00001F00701046C890007258D4024EA0504FC
:1042C0000464147A04FA01F1046C2143016407E0E8
:1042D000046E4FF0010E0EFA01F124EA01010166AD
:1042E0001278196902FA0CF20A431A6130BD00BF54
:1042F000008E0248CB0800EB830001F00701036C3D
:1043000089004FF0070C8A400CFA01F123EA0103FF
:104310000364036C1A430264704700BF72B60C4B0F
:104320000C4A9A60BFF34F8F62B6D3F888200A49CF
:1043300042F47002C3F888205A6922F008025A61D8
:104340004B6923F00F0343F003034B61704700BF39
:1043500000ED00E000000008002000580048704711
:10436000001BB7001C4BDB68D90310B519D51B4BDC
:10437000DB69DA072CD51A4818490B695B0720D589
:104380008C698B698A69C2F30642C3F30621C4F3C0
:10439000036C01320CFB0223B0FBF3F301FB03338C
:1043A00000E00F4B0C4A0F49D0681269C0B202F00E
:1043B000010201300132B3FBF0F3B3FBF2F30B6007
:1043C00010BD8B6903F07F030133B0FBF3F3E9E722
:1043D000FFF7C4FFD0E700BF004600500047005081
:1043E00000366E01C0FF002010B56C4A1368D80774
:1043F00086B006D4536843F0010353601368D907AD
:10440000FCD5674B1A68920511D59A68002142F4D1
:1044100000729A600191019B41F64B52934206D87B
:1044200000BF019B01330193019B9342F8D95D4981
:104430004B69002043F400234B610290029B40F63D
:10444000C312934206D800BF029B01330293029B22
:104450009342F8D9534C636923F4803323F0020369
:104460006361636813F0300F77D14E4B4E495A6940
:1044700042F001025A615A6942F010025A61996190
:104480005A6942F040025A615A6922F010025A6198
:104490005A6942F480225A611A695407FCD5596955
:1044A000404A21F001015961136913F00103FBD166
:1044B0003E49C868032440F48030C8604B610B61FA
:1044C0000B624B62CB618C615169394821F040012C
:1044D000516190610393039B40F6B732934206D833
:1044E00000BF039B01330393039B9342F8D92D4AEA
:1044F00013695807FCD500232E4991610493049B4E
:1045000041F29312934206D800BF049B01330493F7
:10451000049B9342F8D9234A13695907FCD5002319
:10452000254991610593059B41F26F72934206D82C
:1045300000BF059B01330593059B9342F8D9194AA7
:1045400013695B07FCD51D49184B05200022C8667E
:104550005A60FFF707FF06B010BD636823F47023AD
:1045600023F030036360FFF7F9FE154BA3FB002334
:104570001B0D6268013B42EA03436360E36923F079
:104580000103E361636923F400336361236903F486
:104590006073B3F5607FF9D167E700BF0042005058
:1045A0000044005000470050004F130100460050E7
:1045B000004F0701004F0401004F0301004100506C
:1045C0006BCA5F6B10B54FF000530FCB034C84E800
:1045D0000F00FFF7A3FEFFF707FF10BDC4FF002089
:1045E0000B4A08B50346106878B10333094923F034
:1045F000030303448B4201D2136008BD00F010F89E
:104600000C2303604FF0FF3008BD03481060ECE757
:10461000500B0020C0FF0020580B0020704700BF47
:10462000014B1868704700BF3000002070B50D4E78
:104630000D4D761BB61006D0002455F8043B01340E
:104640009847A642F9D1094E094D761BFFF7E6FFC0
:10465000B61006D0002455F8043B01349847A64212
:10466000F9D170BD600400206004002060040020C7
:1046700060040020844641EA000313F003036DD177
:10468000403A41D351F8043B40F8043B51F8043B15
:1046900040F8043B51F8043B40F8043B51F8043B1C
:1046A00040F8043B51F8043B40F8043B51F8043B0C
:1046B00040F8043B51F8043B40F8043B51F8043BFC
:1046C00040F8043B51F8043B40F8043B51F8043BEC
:1046D00040F8043B51F8043B40F8043B51F8043BDC
:1046E00040F8043B51F8043B40F8043B51F8043BCC
:1046F00040F8043B51F8043B40F8043B51F8043BBC
:1047000040F8043B403ABDD2303211D351F8043B5B
:1047100040F8043B51F8043B40F8043B51F8043B9B
:1047200040F8043B51F8043B40F8043B103AEDD20A
:104730000C3205D351F8043B40F8043B043AF9D25B
:10474000043208D0D2071CBF11F8013B00F8013B2E
:1047500001D30B8803806046704700BF082A13D33B
:104760008B078DD010F003038AD0C3F10403D21A53
:10477000DB071CBF11F8013B00F8013B80D331F887
:10478000023B20F8023B7BE7043AD9D3013A11F807
:10479000013B00F8013BF9D20B7803704B78437072
:1047A0008B78837060467047830730B548D0541EBD
:1047B000002A3FD0CAB2034601E0013C3AD303F8D5
:1047C000012B9D07F9D1032C2DD9CDB245EA052542
:1047D0000F2C45EA054536D9A4F1100222F00F0C42
:1047E00003F1200EE6444FEA121C03F1100242E9E5
:1047F000045542E9025510327245F8D10CF101021C
:1048000014F00C0F03EB021204F00F0C13D0ACF1F8
:10481000040323F003030433134442F8045B93427C
:10482000FBD10CF003042CB1CAB21C4403F8012BD9
:104830009C42FBD130BD64461346002CF4D1F9E70D
:1048400003461446BFE71A46A446E0E7000000000E
:104850000000000000000000000000000000000058
:104860000000000000000000000000000000000048
:104870000000000000000000000000000000000038
:1048800090F800F06DE9024520F007016FF0000C90
:1048900010F0070491F820F040F049804FF0000438
:1048A0006FF00700D1E9002391F840F000F1080013
:1048B00082FA4CF2A4FA8CF283FA4CF3A2FA8CF34B
:1048C0004BBBD1E9022382FA4CF200F10800A4FAB2
:1048D0008CF283FA4CF3A2FA8CF3E3B9D1E9042306
:1048E00082FA4CF200F10800A4FA8CF283FA4CF33D
:1048F000A2FA8CF37BB9D1E9062301F1200182FAF7
:104900004CF200F10800A4FA8CF283FA4CF3A2FAFC
:104910008CF3002BC6D0002A04BF04301A4612BA0A
:10492000B2FA82F2FDE8024500EBD2007047D1E90D
:10493000002304F00305C4F100004FEAC50514F09C
:10494000040F91F840F00CFA05F562EA05021CBF6D
:1049500063EA050362464FF00004A9E78000000007
:104960000000010000000000000000000000010045
:104970000000000009023E0002010080320904002C
:1049800000010202010005240010010424020605B2
:1049900024060001070581030800FF090401000245
:1049A0000A000000070503024000050705820240D7
:1049B0000005000012011001020000408B055800A4
:1049C00010000102000100005C4A0008004A0008D3
:1049D000DC490008040058002000000020034900C2
:1049E00000004600000058000000200000004300C6
:1049F0000000440000004300000000000000000030
:104A00005803490000006E000000660000006900C5
:104A100000006E000000650000006F0000006E00E6
:104A2000000020000000540000006500000063004A
:104A30000000680000006E0000006F0000006C00C5
:104A400000006F00000067000000690000006500C2
:104A500000007300000000000000000004030904CF
:104A600000000000E9180008011E0008611B000892
:104A7000F118000809190008012000087119000840
:104A8000851B0008451A000889190008211900082B
:104A9000611F0008A11F0008051A0008311B00084B
:104AA000451B0008A1200000000002003800002083
:104AB00000000450151400086D15000806000000E1
:104AC000000082004000000103004000000181005E
:104AD00008000001000000000000000000000000CD
:104AE0003800002000000000000000002403002027
:104AF0008C030020F40300200000000000000000F0
:104B000000000000000000000000000000000000A5
:104B10000000000000000000000000000000000095
:104B20000000000000000000000000000000000085
:104B30000000000000000000000000000000000075
:104B40000000000000000000000000000000000065
:104B50000000000000000000000000000000000055
:104B60000000000000000000000000000000000045
:104B70000000000000000000000000000000000035
:104B80000000000000000000000000000000000025
:104B900001000000000000000E33CDAB34126DE6C2
:104BA000ECDE05000B00000000000000000000002B
:104BB00000000000000000000000000000000000F5
:104BC00000000000000000000000000000000000E5
:104BD00000000000000000000000000000000000D5
:104BE00000000000000000000000000000000000C5
:0400000508000201EC
:00000001FF
